:020000041000EA
:1004000000C002082B0500100D0000008905001037
:1004100000000000000000000000000000000000DC
:100420000000000000000000000000008505001032
:100430000000000000000000850500108505001088
:100440008505001085050010850500108505001044
:100450008505001085050010850500108505001034
:100460008505001085050010850500108505001024
:100470008505001085050010850500108505001014
:100480008505001085050010850500108505001004
:1004900085050010850500108505001085050010F4
:1004A00085050010850500108505001085050010E4
:1004B00085050010850500108505001085050010D4
:1004C00010B5064C2378002B07D1054B002B02D02A
:1004D000044800E000BF0123237010BD6805020836
:1004E0000000000008A20010044B10B5002B03D040
:1004F0000349044800E000BF10BDC04600000000F2
:100500006C05020808A200100230800803D00130F8
:100510000238FCD1C046C0467047EFF3108072B677
:10052000704780F3108870477047FFF7FDFF72B681
:100530000E4C0F4DAC4209DA21686268A368043B97
:1005400002DBC858D050FAE70C34F3E709490A4AED
:100550000020521A02DD043A8850FCDC07480849A2
:100560000860BFF34F8F07F06DFDFEE714A2001087
:100570002CA2001068050208E40F0208000002081F
:1005800008ED00E0FEE7FEE700B5042071460842F2
:1005900002D0EFF3098002E0EFF30880043006F0A8
:1005A000DBFDFEE70200093A03000120042A03D91B
:1005B000203B18004342584170470000F0B5002727
:1005C00015003C0089B003930E9B02901B0CDBB21C
:1005D00004930E9B00911B0ADBB206930E9B0190C5
:1005E000DBB20793019B059301330193059B1E78B2
:1005F000002E08D0009B002B23DB029A019B9B1A44
:10060000009A93421DDD0E9BDBB20493002B76D043
:100610009E4200D0BAE0009B002B06DB029A019BB1
:100620009B1A009A934200DDB0E0059B019A0233C9
:100630001678022F00D16CE05FDC60D001246442A8
:1006400064E03000FFF7AEFF0028CBD1079BB34238
:10065000D9D031004F4809F043F9031E07D1049B5C
:10066000B3420BD0069BB342E8D14A4B3F33032F32
:10067000B8D8380007F0D6FD05102234454B3E337C
:10068000F5E7002D06D0039A9442D7D241481B1AB1
:100690009B002B550127A5E7621C002D0BD0039969
:1006A0008A42CBD23B4829191B1A285D1E113043C0
:1006B0001B0108704B701400022793E7621C002D89
:1006C0000BD003998A42B9D2324829191B1A285DE6
:1006D0009E1030439B0108704B701400032781E784
:1006E000002D07D0039A9442A8D22A481B1A285DED
:1006F00003432B550027013474E7032F24D0039BB9
:100700009C429BD2002D01D000232B55200009B024
:10071000F0BD1F00002E00D190E7009B002B24DBD2
:10072000029B009AFB1A93421FDD049BB34200D048
:1007300084E7009B002B05DD029B009AFB1A934285
:1007400000DD7BE73E787B1C1F00002E07D0009B5E
:10075000002B12DB029B009AFB1A93420DDD002D49
:10076000CDD02B5D002BCAD068E73000FFF71AFF11
:100770000028DAD03E780137CCE73000FFF712FFCF
:10078000002800D15AE73E780137DEE7002FB6D0C7
:1007900054E7C046509B001000230100180010B51C
:1007A000CA5C1400303C092C09D8303810185A1C87
:1007B000032B03D013000001042AF1D110BD140053
:1007C000413C052C01D83738F0E71400613C052C7A
:1007D00001D85738EAE70020F0E70000F0B50B78C1
:1007E00085B017000390222B17D100234E1C0196D1
:1007F000019A1278222A00D1B7E0002A0ED05C2A92
:1008000007D1019A5278002A08D0019A01330132A7
:100810000192019A01320192EAE71160002012E090
:1008200033785C2B11D02B7001360135019B9E4231
:10083000F6D30023039A2B700833D360130001987A
:10084000029A01301A6105B0F0BD707875280AD897
:100850006D280ED8622819D014D82F2822D05C28F1
:1008600020D022281ED0474B02981B683E60984734
:10087000D4E76E380728F6D807F0CAFC0EF5F5F570
:1008800010F512166628EED10C2300E008232B7019
:1008900002230135F618C9E70A23F8E70D23F6E726
:1008A0000923F4E72870F3E7019B9B1B052BDADD96
:1008B000B01CFFF771FF8022334B0400C318D20035
:1008C0009342D0D30028CED08022304BD200C31820
:1008D000934225D2019AB31DD31A052BC3DDB379F8
:1008E0005C2BC0D1F379752BBDD130000830FFF7F8
:1008F00053FF8022244BD200C3189342B3D2244B1F
:10090000A4021C4083059B0D1C4380235B02E4185A
:100910000C233F221440BF3A1443EC70843212E09F
:100920007F280DD980231B01984216D380235B02B8
:1009300098420AD388235B03984294D20623E8E7BF
:10094000062301222870AD18A4E73F231C40BF3BBB
:100950001C430322AC708633F5E73F231C40BF3BAA
:100960001C4302226C708633EDE7019A501A042270
:10097000D31AC018074B1B689847051E029000D079
:1009800054E74BE7C00002080024FFFF0028FFFFE8
:1009900000FC0F00C4000208002803D00378013BCC
:1009A0001F2B00D970470130F6E70000064B10B549
:1009B00028201B689847041E03D02822002108F035
:1009C00092FE200010BDC046C40002080849094A32
:1009D000002803D1084B0B60084B07E00368002B8D
:1009E00000D1054B0B604368002BF5D013607047B6
:1009F000C4000208C0000208AD960010C1960010A5
:100A0000F8B5802604007600002C00D1F8BDE3681C
:100A10002768104D334205D1A068002811D1206904
:100A2000002814D18022E3689200134204D1206A86
:100A3000002801D02B68984720002B6898473C007D
:100A4000E2E7FFF7DDFFE3683342E8D0EAE72B682F
:100A50009847E7E7C0000208F0B505000F00160050
:100A600085B0002901D1002013E0042238006B4931
:100A700008F056FF002803D10223EB60381D08E080
:100A800005223800664908F04BFF002803D1E860D2
:100A9000781D05B0F0BD04223800624908F040FF1F
:100AA000002806D101230122EB600023AA61EB613B
:100AB000E4E73B78222B05D1320039002800FFF70C
:100AC0008DFEE6E72D2B03D01A00303A092A24D8F0
:100AD00000240A22380003A9039408F0E1FF030070
:100AE00003988742BFD05A1C0AD14F4A914211D174
:100AF00001224D4B5242AA61EB610423EB60C8E72F
:100B0000002B07D180221206914203D180230022BC
:100B10001B06F0E7AB61E961EFE75B2B31D1781C95
:100B2000FFF73AFF037804005D2B22D00027013C39
:100B300000970197FFF73AFF009B071E68D0002B34
:100B400015D0019B18604360601CFFF725FF320041
:100B500001003800FFF780FFFFF71EFF041E3BD0A7
:100B600003782C2BE5D05D2B05D0346034E0009069
:100B7000EAE7002300931023EB60009B601CAB604E
:100B800087E77B2B48D1781CFFF706FF037804002A
:100B90007D2B3AD00027013C00970197FFF706FF15
:100BA000009B071E34D0002B1AD0019B18604360B5
:100BB000601CFFF7F1FE320001003800FFF70EFE67
:100BC000FFF7EAFE002807D03B693B6200233B6148
:100BD00003783A2B06D030600098FFF711FF42E708
:100BE0000090E5E70130FFF7D7FE32000100380042
:100BF000FFF732FFFFF7D0FE041EEDD003782C2B59
:100C0000CBD07D2BB1D12023B6E700230093FAE7A8
:100C1000002B00D127E7DFE7376024E78F9B001028
:100C2000949B00109A9B0010FFFFFF7FF7B5040014
:100C30000E000F1E019200D1144FFFF7B7FE0023E4
:100C400005003B6098420DD02000FFF7A5FE3A005A
:100C500001002800FFF700FF041E05D12800FFF760
:100C6000CFFE00252800FEBD019B002B0AD0FFF718
:100C700093FE03780400002B04D02800FFF7C0FE89
:100C80003C60EEE7002EEDD03460EBE7840502080F
:100C9000002210B51100FFF7C9FF10BD802233B547
:100CA000450AFFB06D02040029006846920008F072
:100CB00011FD01236A46E405E40D69462800135539
:100CC00001F064FC7FB036BD10B518390B5C0A1812
:100CD0000020012B02D01000FFF7E0FF10BD000044
:100CE000F0B58DB01D0015AB1B780E0003930023EB
:100CF000170005A906AA0593069300F044F9041EFF
:100D00004BD12F4B3200009306993B000598FFF71B
:100D100055FC002851DD0C22210009A808F0E3FC55
:100D2000022008AA07A9FF300794089400F070FF7A
:100D3000002802D0652464422FE02900079800F0C3
:100D400039FE0028F6D1033008AA07A9FF3000F0C9
:100D50005FFF0028EED11299079800F0CBFD041E2A
:100D60001BD1300009A900F026F9041E15D11299F3
:100D70000A9800F01BFD041E0FD12900039A0B985E
:100D800000F038F9041E05D1139B002B08D1149BE9
:100D9000002B0DD10998FFF733FE20000DB0F0BDF8
:100DA0001399099800F0FEFB0028F0D00400F1E749
:100DB0001499099800F0C4FCF8E71424BBE7C04676
:100DC000005F2D00F0B58BB0059310AB049204CBFF
:100DD0000F001B7806920793002309AA08A90600B2
:100DE0000893099300F0CFF8041E23D1099800F06E
:100DF0006DF8040008F05AFC051E21D0124B0200C9
:100E00000093099923000898FFF7D8FB002814DD08
:100E1000079B22000393069B29000293059B300049
:100E20000193049B00933B00FFF75AFF0400280046
:100E300008F046FC20000BB0F0BD14246442F6E735
:100E400064246442F6E7C046005F2D00010010B53F
:100E500004000B4808F052FD002398420DD02100F9
:100E6000084808F04BFD0123002806D02100064861
:100E700008F044FD434258414300180010BDC046ED
:100E8000D79C0010E09C0010E89C0010010010B5F9
:100E900004000B4808F032FD002398420DD02100D9
:100EA000084808F02BFD0123002806D02100064841
:100EB00008F024FD434258414300180010BDC046CD
:100EC000F09C0010F99C0010059D0010032358436E
:100ED0008008984304307047F8B50D0000281FD0F3
:100EE00000291DD0C3680860202B1CD184680F4FD7
:100EF000002C01D12000F8BD266A002E06D031005A
:100F00000B4808F0FBFC002802D16C602468EFE776
:100F10003100380008F0F2FC0028F7D1AC60F5E7AA
:100F200001204042E7E70220FBE7C046109D001089
:100F30000A9D0010F0B506000C00002591B001AF2D
:100F4000002C02D1200011B0F0BD216A002904D08C
:100F5000300008F0D3FC0028F4D0A368002B06D0A2
:100F60000E2D0ED8AA00D45101351C00E8E72468E4
:100F7000002CEAD1002DE5D0013DAB00DB591C6807
:100F8000F6E70024DEE7F8B50D002E21160008F084
:100F9000A7FC041E0CD0471C2E21380008F0A0FC32
:100FA000002805D0001B0138306000202F60F8BDFC
:100FB00016204042FBE770B5050000200C00FFF74B
:100FC00005FD2800FFF764FE002803D02100FFF78D
:100FD00083FF70BD05204042FBE702000423002090
:100FE0000130002901D19A4203D95B001D28F7D1B5
:100FF00002307047F0B50F0087B00100C24805927B
:10100000FFF798FF002800D187E2836800930193DF
:1010100000231E0004930393019B002B71D1009BBE
:10102000DB680193202B00D078E2009D2900B748AF
:10103000FFF780FF041E00D1EBE08369059ADBB265
:10104000934200D0E5E00100B148FFF773FF0028AC
:1010500000D1D8E083693B702100AE48FFF76AFFFA
:101060001423002800D083697B602100AA48FFF781
:1010700061FF0123002803D0C3685A1E9341DBB2ED
:101080002100A6483B72FFF755FF002800D1BDE0C4
:101090008369FB6000232100A1487B76FFF74AFFAC
:1010A000002807D001699F4808F028FC002801D1DA
:1010B00001237B763B007A7E49331A70002E00D0E4
:1010C0002CE2009D29009148FFF734FF002800D151
:1010D000A4E083693A78DBB29A4200D09EE029000E
:1010E0009148FFF727FF0123041E019300D19CE0E4
:1010F00082692F33541E6343FB181A76022301932F
:1011000093E001998948FFF715FF002802D0856810
:10111000002D03D1019B1B6801937DE729008448C2
:10112000FFF708FF00284BD0002403690293814A8F
:10113000A3009958029808F0E1FB002800D1F0E1E3
:101140000134042CF3D100247B4AA300995802985F
:1011500008F0D4FB061E05D00134172CF4D1052667
:10116000183C764229007548FFF7E4FE002801D0BC
:101170008369049329007248FFF7DCFE002804D03D
:10118000C1698069FFF729FF0390631C18D0039B96
:10119000002B15DDA9226300FB1852009A5C012A7E
:1011A00004D1220004990E32D200D1515422FF32D0
:1011B0009B5C012B04D10E34039BE4003C1963605B
:1011C0002D68A5E75F49029808F098FB0028F7D141
:1011D00029005A48FFF7AEFE002806D0A2235B0084
:1011E000FB5C012B01D18369BB6629005448FFF7E2
:1011F000A1FE0028E4D04623FF33FB5C012BDFD1A6
:101200008369FB66DCE70126764225E7FA231B01AA
:101210003FE72D68002D00D008E74FE72D68002D2F
:1012200000D04FE701232C000193002D00D095E062
:1012300029004548FFF77EFE002800D0FCE0290089
:101240004248FFF777FE00280ED00D236343FB18BA
:101250002A33FF331B78012B06D1C2682F33511E6E
:101260008A416343FB185A7029003948FFF762FE30
:1012700000280ED00D236343FB182C33FF331B785B
:10128000012B06D1C2682F33511E8A416343FB18DC
:101290001A7429002F48FFF74DFE00280CD00D23AB
:1012A0006343FB182C33FF331B78012B04D12F33FE
:1012B00063438269FB189A7429002748FFF73AFEB6
:1012C000002800D1C8E0C368102B00D0C4E0302251
:1012D0008168380062432F30130080182322524265
:1012E00062432C330632FB18FF32002900D1B3E0F1
:1012F0009E5C012E01D18E691E700133834200D1A4
:10130000AAE00968F1E7C046F09C0010FC9D0010BF
:101310007B9D0010829D00108A9D0010959D0010FD
:10132000A19D0010AE9D0010B39D00105C9D0010AB
:101330001D9D001024010208C8000208669D0010CF
:101340006E9D0010739D0010BF9D0010159D001034
:10135000D69D0010DE9D0010ED9D001029008348F1
:10136000FFF7E8FD002800D162E78668002E00D173
:101370005EE731007E48FFF7DDFD00282DD00369D0
:101380007C491800029308F0B9FA002827D13100EF
:101390007948FFF7CFFD00280CD00D236343FB18DD
:1013A0002E33FF331B78012B04D12F336343826923
:1013B000FB18DA6131007148FFF7BCFD00280CD042
:1013C0000D236343FB182F33FF331B78012B04D10C
:1013D0002F3363438269FB181A623668C6E768498F
:1013E000029808F08BFA0028F7D131006248FFF725
:1013F000A1FD00280CD00D236343FB183033FF33CD
:101400001B78012B04D12F3363438269FB185A6286
:1014100031005A48FFF78EFD0028DED00D236343CC
:10142000FB183033FF331B78012BD6D12F336343A6
:101430008269FB189A62D0E70D236343FB182D33B2
:10144000FF331B78012B00D0F9E62F336343826909
:10145000FB18D2B25A61F2E629004A48FFF76AFD4A
:10146000031E01D08369DBB230226243BA18937045
:1014700029004548FFF75EFD0123002805D0C26919
:10148000836913435A1E9341DBB230226243BA1878
:101490005374002C1DD129003C48FFF74BFD142349
:1014A000002800D083697B6329003948FFF742FD9B
:1014B000031E03D0C3685A1E9341DBB23A00383290
:1014C000290034481370FFF735FD00281ED08369CA
:1014D000FB63019B022B20D1009D29002E48FFF7C2
:1014E00029FD002815D08269D3B2022B11D13026F4
:1014F000541E6643BA19290028481376FFF71AFDCF
:10150000002801D08369F3550123F8E5FA231B0174
:10151000DEE72D68002DE0D1F6E70026300007B0A9
:10152000F0BD1F49029808F0E9F9002800D049E60B
:1015300029001148FFF7FEFC002806D0A1235B001C
:10154000FB5C012B01D183693B6629000B48FFF747
:10155000F1FC002800D133E64423FF33FB5C012B70
:1015600000D02DE683697B662AE6C0465C9D0010AC
:101570001D9D0010C99D0010669D00106E9D0010FD
:10158000CE9D0010F79D0010FF9D0010829D001061
:101590008A9D0010959D0010B39D0010FC9D0010C9
:1015A0000A9E001070B5514BBAB00C0002930B1D8F
:1015B00004934F4B0C34059301230A944D4C0A00BD
:1015C0000B94CC180D944C4C08320E940C00103433
:1015D00010944A4C079211940C0014341394484C04
:1015E000484A14940C0018341694474C002517945C
:1015F0000C00089202221C340191069309920C936C
:101600001293159303950F95189319943F4C1B93C0
:101610001A940C0020341C943D4C1E921D940C0016
:1016200024341F943B4C219220940C0028342294A3
:10163000394C249323940C002C342594374C279355
:1016400026948C182894364C30922994CC1C2B94D8
:10165000344C2A952C940C0030342E94324C2D9519
:101660002F940C003434319433920A00383234927F
:101670002E4A3C3135922E4C2E4A379101002E488D
:101680003294369338923993FFF754FC0600A842FF
:101690001ED08368AB421BD001AC31006068FFF7FD
:1016A00049FC002810D0C368042B0DD1A368012B7E
:1016B00011D0022B13D0002B06D1C26983691343CA
:1016C0005A1E93412268137001350C34132DE4D156
:1016D00000203AB070BD236882691A60F4E783691C
:1016E00016492268DB015B181360EDE71B9E0010B2
:1016F000289E0010409E00104D9E0010579E001026
:10170000619E0010359E0010699E0010709E0010B2
:101710007E9E0010889E0010939E00109F9E0010D9
:10172000AC9E0010B69E0010C39E0010D89E001004
:10173000CD9E0010E49E0010F19E0010000032408B
:10174000F8B50D0001001648FFF7F4FB011E08D0A4
:101750008368002B05D01348FFF7ECFB0400002C36
:1017600001D10020F8BDA4680F4FA1683800FFF731
:10177000E1FB2E000028F2D0C368042BEFD183696F
:101780002A1D3360036824689B6921007360D36F4E
:1017900038000133D367FFF7CDFB0836EAE7C046D0
:1017A000F89E00109F9B0010049F001070B50C0065
:1017B00001001648FFF7BEFB051E24D001001448A7
:1017C000FFF7B8FB002806D0E378012B03D10069AE
:1017D000FFF73CFB207029000E48FFF7ABFB002809
:1017E00006D02379012B03D10069FFF74FFB60700E
:1017F00029000948FFF79EFB002804D06379012BDC
:1018000001D18369A370002070BDC0460D9F0010F8
:10181000109F00101B9F0010239F001070B5040044
:101820000D0086B00021142201A807F05CFF2900FA
:101830002000FFF77FFB0400002C18D021001C487B
:10184000FFF778FB0028F7D00569002D0AD0194E64
:101850002900300008F052F800280BD1310001A80F
:1018600008F056F8210001A8FFF764FB04002000EF
:1018700006B070BD104E2900300008F03FF8002877
:10188000ECD029000D4808F039F80028E6D00C4EBD
:101890002900300008F032F80028DFD0290009487C
:1018A00008F02CF80028DDD121000748C1E7C04628
:1018B0001D9D0010459D00102E9D0010359D0010AF
:1018C0003D9D0010229D0010289D001010B5FFF7CF
:1018D00031FB0124002809D08168002906D0044882
:1018E000FFF728FB002801D0C468E4B2200010BD37
:1018F000279F0010F7B5040000200D00FFF766F8E1
:101900002000FFF7C5F9071E49D001002548FFF761
:1019100011FB041E06D1012676423800FFF770F84D
:101920003000FEBD204E01003000FFF777FF2100A0
:1019300000903000FFF7CAFF009B0600002B28D064
:101940001869FFF783FAEE70002628702100174807
:10195000FFF764FF210000901448FFF7B7FF009BDA
:101960000190002B18D01869FFF790FA019B68705E
:101970002B7121000E48FFF751FF210000900C4809
:10198000FFF7A4FF009B002BC5D09B696871AB706B
:10199000C3E701267642D9E701267642E9E7052624
:1019A0007642BDE70D9F0010109F00101B9F001096
:1019B000239F0010F0B5050085B000200C00FFF754
:1019C00005F82800FFF764F90190002800D108E12C
:1019D00001008648FFF7AEFA051E00D1FDE0844FF6
:1019E00001003800FFF71AFF290006003800FFF752
:1019F0006DFF002E00D1D4E09422B3695200DBB217
:101A00002370A0542200303213703623FF33E05489
:101A10000023784F290038000093FFF7FFFE2900CC
:101A200006003800FFF752FF002E00D1BCE0F3683B
:101A30005A1E93412A22DBB2FF326370A054220067
:101A4000313213709B235B00E0546B4F2900380048
:101A5000FFF7E4FE290006003800FFF737FF002EED
:101A600000D1A5E0F3685A1E93412C22DBB2FF326D
:101A70002374A0542200403213709C235B00E05476
:101A80005E4F29003800FFF7C9FE29000600380024
:101A9000FFF71CFF002E00D18EE09622B3695200A2
:101AA000DBB26361A05463643A23FF33E054544EC5
:101AB00029003000FFF7B2FE290007003000FFF7D1
:101AC00005FF0500002F00D17AE02000BB6903224A
:101AD000DEB231002C3007F006FE20003230032247
:101AE0002900FF3007F0FFFD2000032231005C30A9
:101AF00007F0F9FD20003F3003222900FF3007F0F6
:101B0000F2FD01993F48FFF715FA0600002F64D057
:101B10002E230122FF33E2540220230098213A4F62
:101B2000FE33FF304900188662549887D887310009
:101B30003800FFF773FE310005003800FFF7C6FEDE
:101B40000390002D40D0AB690293304F3100380034
:101B5000FFF764FE310005003800FFF7B7FE002DE7
:101B600037D0AD6923002100220053338131703218
:101B7000FF33FF31029E55601660039E58701E7041
:101B8000023308328B42F5D1A12302225B00FF32DF
:101B9000E25202330198E252FEF732FF009805B09C
:101BA000F0BD01235B4234E701235B4200934CE725
:101BB00001235B42009363E701235B42009376E7D6
:101BC00001235B4200939CE701235B420295009353
:101BD000BBE701235B420093C4E701235B42009310
:101BE000D2E705235B420093D8E7C046F09C001083
:101BF000FC9D0010159D0010D69D0010BF9D00108B
:101C0000ED9D00105C9D0010669D00106E9D001003
:101C1000DC23F0B59B0585B00093002302AD019550
:101C200002901848184C06686B60306A0768002FED
:101C300007DBA34203D10120404205B0F0BD0133D0
:101C4000F4E7A342F7D06B46C3600123BC36836040
:101C50003368C01800230668002E03DAA342EAD0D6
:101C60000133F8E7A342E6D0A02300981B06984270
:101C700001D00098E1E7029B002013606B680B60C5
:101C8000DBE7C04690050208983A00000122F0B553
:101C90000024184B0668196832400B6ABC310D6885
:101CA00015495D191F68002F06DB8C4202D1012007
:101CB0004042F0BD0134F5E78C42F8D0002A00D153
:101CC00006000120DE60986000202C68002C03DAFA
:101CD0008842ECD00130F8E78842E8D0DB68002A7F
:101CE00000D11B68A022002012069342E1D0180008
:101CF000DFE7C04690050208983A00000A4B37B566
:101D00001B780500013B0024012B05D8074B01A8D7
:101D10000193FFF7BBFF0400002D02D0280005F05F
:101D2000C7F920003EBDC046040E02080101013A79
:101D300007B5034B01A80193FFF7A8FF0EBDC046EE
:101D40000101003210B5FFF7F3FF002801D107F0C1
:101D5000E7FE10BDF8B5040008001500FFF7CEFF40
:101D60001D4B1B68002B20DAB0261C4B1C4FB60005
:101D7000BB511C4B1C481B681A009832196812682A
:101D80008A18116808401949014311601A009032FD
:101D900012681B689B18102219681142FCD00120A0
:101DA00005F086F9BC51FFF7CDFF002D0CD006F0F1
:101DB000D1F8C02201230E495200885803438B50AA
:101DC00006F004F906F0AEF8200006F0F7F900205E
:101DD00005F024FDFBE7C046000126400040001648
:101DE0000000214090050208FCFF00000300FA05F6
:101DF00000002640C0220123044910B55200885833
:101E000003438B5006F0E2F810BDC04600002640A8
:101E1000F8B5294B421E05009A4249D8274B1A783B
:101E2000002A45D10124264F1C703B78254E002BFB
:101E300007D1FFF7DFFFE122D200B358A343B3502D
:101E40003C70C02201215200B35800248B43B35090
:101E50001D4B1D801D4B1A005988A94222D8A30092
:101E6000D35A9D4200D21D00194B20001C7006F071
:101E700095F8C22328005B00F65807F073FA154A5C
:101E8000154B06F0B1FB06F0C5FA11231C1B103BE5
:101E9000A3408019C01A80B206F06EF8FFF7AAFFBF
:101EA0000020F8BD013404330D2CD5D1013CDBE713
:101EB00001204042F5E7C0466F1700008C0502087C
:101EC0008D050208000026408A050208309F001098
:101ED0008805020833DFC14F1C409F3FC02201200C
:101EE000044952008B5883438B500022024B1A70D6
:101EF0007047C046000026408C050208C022012021
:101F0000024952008B5883438B5070470000264093
:101F1000014B18607047C04690050208F8B5802351
:101F2000FA270E0001251B020C4C18430004E06147
:101F3000BF00236C2B4208D1002F01D108480CE0D0
:101F40002800013F05F0CCF8F3E7002FF6D0002081
:101F5000236C1D432564E36A3380F8BD00003C40D8
:101F60000400160070B5FA2601240C4D0004084345
:101F7000E861B6002B6C234208D1002E01D108483D
:101F80000AE02000013E05F0ABF8F3E7002EF6D0A2
:101F900000202B6C1C432C6470BDC04600003C40EC
:101FA0000400160010230449044A885803438B5048
:101FB0000022034B1A60704700003C4070F00100A3
:101FC000CC0F0208F0B51B4B9DB001A90A00180008
:101FD00070C870C270C870C270C870C214001A0095
:101FE00020002432E0CAE0C0E0CAE0C0E0CAE0C09D
:101FF000020048330500C1CBC1C2C1CBC1C2C1CBB5
:10200000C1C20D4E336898690130FF3000F0F4FA18
:102010003368210098698130FF3000F0EDFA3368B1
:102020002900986980239B00C01800F0E5FA1DB0D4
:10203000F0BDC04624A0001090050208F0B589B09C
:1020400003930EAB1B780490009105920293012834
:1020500000D9E9E1032900D9E6E1039B0C3B872B7A
:1020600000D9E1E1FB2A00D9DEE105F023FF0028D9
:1020700001D005F09DFA0123BC4FBD4D7A591A429B
:1020800004D0BC4ABA581A4200D0CFE1FFF79AFFF9
:10209000B94BBA4AFA50A023039A1B031343B84A18
:1020A000BB50B84BB84AFA50B84B5A6801231A4291
:1020B00000D0BDE1B64ABA5812073ED53A68B549D4
:1020C0005B030B431A433A6005F0ECFC002843D055
:1020D000029B002B40D10320012105F01DFD0120B2
:1020E00005F04AFD7E59AC4B402033437B5104F050
:1020F000F7FF0123A94C3A591A4208D140203B511D
:1021000004F0EEFF032340203B5104F0E9FFA44B11
:10211000A44C1E4001963443FA267C51F600A24B93
:102120001B689A69A14BD358102213421FD1002E6D
:1021300018D19F4C200009B0F0BD04F015FF9D4957
:10214000884202D83A689C4BBCE706F089F83A68A6
:10215000431E0128F7D0B2E70323984AB9580B432E
:10216000BB50BFE70120013E04F0BAFFD7E7002EC5
:10217000DFD00823924A0120B9580B43BB5005F029
:10218000A3F9002802D0029B012B02D18D4C019BA8
:102190001C4301268C4B1C4034437C518B4C754BAB
:1021A000FB58334206D1002CC3D03000013C04F070
:1021B00097FFF4E7002CBCD00B26C02184484901CE
:1021C000FFF7D0FE041E05D106AB8148991DFFF72D
:1021D000A5FE0400013E002E60D1754C05F032F8DA
:1021E000212843D0B0277B4E7F05BB5B002B3DD021
:1021F000002C9FD106AB9D1D29007748FFF78EFE6E
:10220000041E00D096E7B95B288860344908A043D3
:10221000214001437148BA5B0140F020D201C00067
:10222000024011436E4ABB5B1140C022DB005201E9
:102230001340194368482980FFF794FE041E00D01C
:1022400078E729006748FFF769FE041E00D071E7B0
:10225000FF23C022B95B63480909890119402B8813
:10226000934319432980FFF77DFE0400002C00D022
:1022700060E7059B5C495A0011435C4889B2FFF74F
:1022800071FE041E04D15A495A48FFF76BFE040040
:10229000039B580180B204F023FF4BE7002C9DD133
:1022A000C02206AB9D1D2B885201934200D084E7CB
:1022B00029005148FFF732FE041E8FD180262B885B
:1022C000F600334236D029004C48FFF727FE041EA3
:1022D00000D083E76A4612882B880292049A012A6A
:1022E00000D093E00099013216000190012904D832
:1022F00002990E00521A92B201923F229343313258
:1023000013432B803E4B009A2988D3403D4A3143EA
:102310003A4813602980FFF725FE029B04009A1BB0
:1023200003231340019A96001E43374BB6B22E800A
:10233000FE5053E70B23019331002F48FFF712FEA5
:10234000041E04D129002C48FFF7E8FD0400019B7E
:10235000013B0193002B00D13FE7002C00D03DE76B
:1023600080222B88D2009342E6D1ACE700003C40AB
:10237000A0F00100B4F00100A4F00100060000018B
:10238000A8F00100ACF0010001000100FC003C409D
:1023900070F00100041A008030000300B0F001006A
:1023A000EFFFFEFF20000200900502081040000031
:1023B0000400160000093D00040A0080C4F001007A
:1023C00068F0010028000200FFFFFBFFF07E0E0016
:1023D000021E000016180000071E00007FF5FFFF18
:1023E000FFE7FFFF061E000001100000081E0000AE
:1023F000376800000F1E0000031E0000091E0000C9
:102400000048E801CC0F020864F00100009A0126A0
:102410000190002A01D10196009E7F2293436F3ADA
:1024200013432B80034B6EE7034C83E6034C81E69A
:10243000034C7FE60024F4000100160003001600A0
:1024400002001600044B1B681A00BA3212881B6A7D
:102450005043C0187047C04690050208A02300B53D
:102460001B06984226D015D8802825D00AD81028D7
:1024700024D0402824D000280BD0154809E0A420FF
:10248000C00306E08022134B520090421CD09842B9
:10249000F3D100BD104B984218D0104BC01804283F
:1024A000EBD805F0B5FEECEA0F0305000C48F0E7A9
:1024B0000C48EEE70020ECE70B48EAE70B48E8E7BA
:1024C0000B48E6E70B48E4E71800E2E7A020D7E76F
:1024D000FF00520006005200090000A0FFFFFF0F9E
:1024E000020052000300520005005200010050009B
:1024F000020050000100520010B50020FFF7A2FFBB
:102500000A4B1C682300BC331B68C0180368002BEF
:102510000ADB074B1868FFF7A1FF012263689A6086
:102520009A68002AFCD110BD0248FCE79005020819
:1025300094050208020050000D4B10B518600028E9
:1025400004D0FE235B42038000234380094B1B68B9
:102550001A0050321278002A08D051331B78002B11
:1025600004D002220020044900F08EF910BDC046BC
:10257000A405020890050208CD01020810B5024822
:10258000FFF7DAFF10BDC04600000008C30570B5B4
:1025900005000C00DE0D002B20D100291ED005F017
:1025A000ADFD0F4B0F4A1A605E609D60DC600E4B04
:1025B0001B685233197800290BD004F0E2FCFA2191
:1025C000890005F04DFE0100084805F049FE084B62
:1025D000C1188020400007F0ABFA70BD0548FCE749
:1025E000940502080001000590050208C0EA2101D7
:1025F000482600000600520030B5002830D00029DF
:102600002ED0184BCD681A6893695469C31ADB0938
:102610001B011B1914008134247824182560140030
:10262000823424780D6924182560140083342478BA
:102630004D69241825601400803424788D6824188E
:1026400025604C688432846112788C691218146099
:10265000CA691A600A6A5A600B680360002030BDBC
:102660000148FCE79005020801005A000E4B10B526
:102670001B689C695B69001BC0090001C0181F230F
:102680001A40032907D8C9008B408A4004689C433C
:102690002243026010BD0439C9008B408A4044685F
:1026A0009C4322434260F5E790050208F8B51E00FE
:1026B00006AB15001A7807000C00FFF7D7FF0123BF
:1026C00019001E40A140A6403A68A4008A43164360
:1026D0000F2211001540A140A540054B3E601B682C
:1026E000813318783F183B688B431D433D60F8BD2C
:1026F00090050208064B1B68BC331B68C3181B6897
:10270000002B03DA89B24160002070470148FCE7E2
:102710009005020801008A000368002B04DA89B2E0
:10272000C2608160002070470048FCE701008A0019
:10273000064B1B68BC331B68C3181B68002B03DAED
:10274000C36800200B6070470148FCE79005020851
:1027500001008A00024B1A68002A00D118607047F5
:10276000A8050208F0B52C24444315481F00006852
:102770001E0A0019FF2426402740124C1B0C256816
:1027800007602C6A46608360BA352D886F433F1915
:102790000761370080377F01E7190B4D76014761EC
:1027A000A4191F043B436419236000238361059B24
:1027B000C2610162002B01D01B888381F0BDC0463D
:1027C000A80502089005020808100000F0B583680B
:1027D00085B002AD2B800368066A1933AB7043687D
:1027E000476A0095826AC16A040003930369C0685E
:1027F000FFF7B8FF00213B000A0030000091FFF70F
:10280000B1FF2800216B04F009FC0022AB5E002B15
:1028100006DB1F2213401E3A9A401300014A136040
:1028200005B0F0BD00E100E0F7B52C26134C704375
:102830004E43246801932518A4192E69002E19D03F
:10284000A069002818D13168002915DA01216F68C4
:102850000D0063689D40AC4613689DB263461B043F
:102860001D431560F260A161B940019B89B26362AA
:10287000B160FEBD0248FCE70248FAE7A80502087D
:1028800004028A0007028A002C234343064800689A
:10289000C018C369934204D9036A00209200D15042
:1028A00070470248FCE7C046A80502080A028A00F1
:1028B00073B5002642690400D56801962B0CB3421B
:1028C00021D01B0413601368194B00691B68BC33CB
:1028D0001B68C3181B68B34215DA01A9FFF728FF6C
:1028E000B0420CD10198E26903681E0CDBB29A4237
:1028F00005D9226A9B009B58002B00D098473100D5
:102900002069FFF7F7FEADB2002D09D063691D60A5
:1029100000251B68636AAB4205D098476562A561D4
:1029200063691B6873BDA36A002BF8D09847F6E76C
:10293000900502082C2310B54343034A1068C018C1
:10294000FFF7B6FF10BDC046A80502081A4B70B5C8
:102950001A680C00130033331B7883422AD90029EC
:1029600028D00D681F212B000B400D4222D11100F1
:10297000BA310988126A48431900104D801828603E
:1029800022685209934210D30021FFF7B3FE0021C1
:1029900022002868FFF7C0FE011E04D12868FFF757
:1029A000A9FE002800D0064870BD66689A009151C3
:1029B0000133E5E70348F7E790050208AC05020894
:1029C00001018A0003018A0010B504000800002AF2
:1029D0000CD1002913D10B4B1A681300BA331B8892
:1029E000126A63439B18084A136010BD002906D081
:1029F0000649086020004A60FFF7A8FFF5E7044891
:102A0000F3E7C04690050208AC0502080400000880
:102A100003018A00F7B5184F04003B680191DE6896
:102A20003368834226D90025A94202D1FDF775FDFE
:102A3000050038680368002B1ADA1F2201232240A0
:102A4000934064097268A4001419226813420DD0DF
:102A50009A43226000240021FFF74CFE019B002BCB
:102A600002D12800FDF75DFD2000FEBD034CF2E71A
:102A7000034CF3E7034CF7E7AC05020802018800BA
:102A80000301880004018A000A4B1B68DB681A688E
:102A900082420DD959681F23420918401E3B8340CA
:102AA000920050581840431E9841034BC01870477D
:102AB0000248FCE7AC0502080001880004018A0016
:102AC00070B59621002004F05FFB0021080003F0A0
:102AD0009BFA444244412E4B64421C402D4B05005E
:102AE0000020E41803F0EEF9012003F0C7F90020FC
:102AF00003F0A0F805F002FB274E33683F331B7844
:102B0000002B03D0012003F089FE0500002D00D02A
:102B1000224C33683F331B78012B03D9022003F08A
:102B20007DFE0500002D00D01D4C0021012003F08A
:102B3000ABFC002800D01B4C002003F05BFA051E04
:102B40000ED103F0D7FC1223FF33984208D10121A4
:102B5000280003F027FA002800D00E4C05F0CEFA2A
:102B600003F030FD002800D00F4C0021080003F0D6
:102B70008BFC002800D00D4C0021080003F012FA55
:102B8000002800D0034CFFF70DFA200070BDC046AE
:102B9000F1F0E5FE0F0F1A01900502082F0F1A0140
:102BA0002E0F1A014E0F1A013F0F1A014F0F1A0173
:102BB0004E4BF0B5C4001B19002900D18AE0072A4A
:102BC00000D987E00D001C00543521600431083421
:102BD000A942FAD101219140441C5960A4B2434B4F
:102BE000E400E4186160841CA4B2E400E4186160AD
:102BF000C41CA4B2E400E4186160041DA4B2E400A3
:102C0000E4186160441DA4B2E400E4186160841D0E
:102C1000A4B2E400E4186160C41DA4B2E400E418A6
:102C2000616004000834A4B2E400E4186160540058
:102C3000270003262E4CBE4025682C0080342478C3
:102C40000234A4082418E400E41866600F269400F7
:102C50002A00A64081321278023292081218D2005D
:102C6000D21856603E001036B4462A006746032646
:102C700082321278BE40023292081218D200D21864
:102C800051602A00833212783143023292081218BE
:102C9000D200D2185160FE22012684352978920094
:102CA0000231224089080818511C8E40310001264B
:102CB000C000C318901C864031430126964003276C
:102CC0000E43D11C8F4037430726053296403743C9
:102CD0005F60F0BD002201211000494201321860FE
:102CE00059600833152AF9D1F3E7C046B405020844
:102CF00090050208C300013030B580B2124CC0000C
:102D00001B190019002901D0072A06D90122002128
:102D1000524219605A6006C030BD0C4C2468A56947
:102D20006469491BC9090901091919600431016065
:102D30001F21032A03D8D20091405960ECE7043ADE
:102D4000D20091404160E7E7B4050208900502080F
:102D5000C30001300D4A80B2C00010B59B18801826
:102D6000002905D10122524219605A6006C010BDE7
:102D7000074A8031126894695269091BC90909011F
:102D80008918002219605A600431EFE7B40502087F
:102D900090050208F0B500240700008825000138DE
:102DA00085B0092800D930E105F050FA41000A0049
:102DB00027004E00DD0026012E0350005C00A0001D
:102DC0007D88B149E8000B185B68FA681C00144064
:102DD00013420FD15E1C0DD09C2D0BD841580029F9
:102DE00008D0BD6808682B4303401A430A607C6022
:102DF00005B0F0BDA54B7B60FAE77888A24BC20016
:102E0000991849684C1CF5D09C28F3D8D058002854
:102E1000F0D0BB6802680B4203D01C005440214232
:102E2000E8D10A401343036000237B60E0E77B881E
:102E30009C2BDFD8944ADB009B58002BDAD01B6810
:102E4000BB6000237B60D3E77C60D1E7BB68022BCB
:102E500005D1FB68282B02D100237B60C8E78C4B8F
:102E60007B60C5E7BB68002B00D146E2FA68052A03
:102E700000D942E200227A60864A1268002A05D10F
:102E80001A60DA609A615A621A63B1E71178002910
:102E900024D091681960D16859607F499960517850
:102EA00000291DD0116AD960916A19617B49596165
:102EB000516A9961D16AD961794919629178002979
:102EC00011D0116B5962916B99627649D962516B3D
:102ED000D26B19635A63744A9A6389E71960DEE713
:102EE000D9609961EAE75962196381E7BB68002BF1
:102EF00000D17DE7FA68052A00D979E7654A1268AA
:102F0000002A05D11A609A601A619A611A62A3E7D1
:102F1000117800291FD09168803119609321998020
:102F20005178002919D0116A8031996095219981D1
:102F3000516A8031196197219982917800290FD0C7
:102F4000116B526B8031803299611A6299219B22F8
:102F500099839A8480E71960E2E799601961ECE748
:102F60009961196278E7B968002900D1C5E14F4C31
:102F70004F4D2378F0220393002328007B6006F056
:102F8000A9FB04F0C9F8002810D0FFF799FD78607C
:102F90007B68002B00D02BE72800237001F0DEFDBA
:102FA0007860002825D0039B237021E72378002B2D
:102FB000EED1EB78002BE8D0EB79002BE5D02B009D
:102FC00055331B78029304F095F8061E02D0394E53
:102FD0007E60DAE703F0FAF8002805D103F0E2F8A2
:102FE000029803F01DF9F3E703F0FAF80028F5D092
:102FF000EDE701232370FBE67888712825D8652842
:1030000006D82C3883B2072B13D9204B7B60EFE610
:1030100066380B28F9D805F00FF922005F00F8FF99
:10302000F8FFF8FFF8FF2C01310136013F0149019B
:103030007D010728E9D805F0FFF86500BC00E8FF2E
:10304000A801AD019B01A0019601C82800D1BDE1F6
:10305000C928DAD1FEF7A6FF00237B60C8E6BA686C
:10306000154B002A2ED15A68144911401B220A43DD
:103070005A605968124A114359605968114359609E
:1030800059680A435A60E7E6B4050208FF0F1A01BF
:10309000F90F1A01140C02082000890035008B007A
:1030A0004A008D005F008F0074009100100C020830
:1030B000200B02086F0F1A01000026400000FC0FD1
:1030C000003A0280E8215868B54C8901204001434C
:1030D00059605A682240D5E7B24B1A681300BA33D8
:1030E000198807234B43126A9B181A68002AFCDAD6
:1030F0008022D96852050A43DA6000225A605B6870
:103100007A6075E60024A84BB1251C80A74B802669
:103110001C8003F045FAED00B605002819D0200008
:1031200003F0E8F902283BD1A14B9C46002C1CD1AE
:103130006146A04B5A590A4032435A51002120009F
:1031400003F0A2F90123A340974A12881343964A39
:103150001380944B01341B683F331B789C4200D989
:103160007AE6200003F046FBD7E70320914A924914
:10317000A3009B185A58120F024204D05A58120F3B
:103180000240012A06D10120A040884A128810433B
:10319000864A108060465A58024032435A50CDE762
:1031A000002CD6D1834A824953590B4033435351A3
:1031B000CFE77D4B1B88002B0FD103F0F1F9041EE4
:1031C00009D07E4C42E0013D03F062F8022806D0AF
:1031D000002DF8D17A4C7C600AE6784DF4E7002D9A
:1031E000F8D00026764C0123B3409AB202926E4A80
:1031F0001288134219D00221300003F045F9002E45
:103200000BD0300003F000FB002801D001F0E1F802
:10321000002D0AD0013DF4E7013D03F0C9F9002873
:1032200001D001F0C7F8002DF6D15E4B01361B68C6
:103230003F331B789E42D6D9CDE7C0205D4980053B
:103240005B18995801439950EFE7013C03F0B0F93E
:10325000002802D1002CF8D1BCE7002CBAD0B12252
:10326000C0235449D20088589B05034300248B5047
:10327000B1E704F01FFC00237B60B9E504F06CFCAF
:1032800000237B60B4E5B868431E9841C0B204F0E7
:1032900073FC00237B60ABE5BB68187807282CD84B
:1032A000597804F039FC00237B60A1E5BA681378F3
:1032B000002B22D15168C8B20F281ED801248C409F
:1032C0004048127A84460430C66FB3420AD0D80010
:1032D0006044056825421BD0022A11D0032A13D06E
:1032E000002A07D0002300207B6004F067FB002841
:1032F00003D17DE54368DB07F4D4334B7B6077E58E
:1033000043681342EED1F8E743685B07EAD4F4E779
:103310000133DAE7BB681A78002AEED104240125CC
:10332000197A284B181DC06F824207D1002078609F
:10333000002800D05CE504F07BFBD8E7022908D028
:1033400003290CD0002907D15E682E4204D11E4803
:10335000EDE75E680E42FAD001320833E4E75E68BA
:103360002642F9D1F3E703F0B3FC00237B603FE58D
:1033700003F0E8FC00237B603AE5BB681A891888F3
:10338000596803F0BBFB786032E5B86803F06AFC6B
:1033900078602DE5B86802F0F7FE00237B6027E532
:1033A000FF00FC0F90050208B0050208B2050208F4
:1033B000FFFFFFCF00002640FC05000040420F0049
:1033C000FA0F1A019C0A0208FE0F1A01B94CBD68D7
:1033D000230021006A68DC331A60AB68E0310B60BF
:1033E000210026002878E43108606978E8363160E9
:1033F00026002D7BEC36356001260234E6770095F9
:10340000FEF71CFE7860F3E4AB4B1B78002B01D178
:1034100000F0CCFF78880838632800D9F5E504F07F
:103420000BFFCB00DE00F4002001340151016801E4
:103430007C01F4FD9001A401B801D80127027602B5
:103440005003140430044C0468048404A004B4043D
:10345000E70403051F0533054705630577058B055D
:10346000B106DC060F074407A007F4FDF4FDBC0716
:10347000F4FDF4FDF4FDF4FDF4FDF4FDF4FDF4FDC4
:10348000F4FDF4FDF4FDF4FDF4FDF4FDF4FDF4FDB4
:10349000F4FDF4FDF4FDF4FDF4FDF4FDF4FDF4FDA4
:1034A000F4FDF4FDF4FDF4FDF4FDF4FDF4FDF4FD94
:1034B000F4FDF4FDF4FDF4FDF4FDF4FDF4FDF4FD84
:1034C000F4FDF4FDF4FDF4FDF4FDF4FDF4FDF4FD74
:1034D000F4FDF4FDF4FDF4FDF4FDF4FDF4FDF4FD64
:1034E000F4FD64007F009A00B1000223714CFF33A9
:1034F00026882380BB68E21CDBB22579D3775A4249
:1035000053412371FB68FF2B00D1A5E4200001F09B
:1035100025FB7860002800D16AE42680257167E4E5
:103520000123644C26882380BB68221DDBB22579E9
:10353000D377023B5A4253412371FB68FF2B00D1E2
:103540008AE4200001F00AFB7860002800D14FE4F3
:10355000268025714CE4574C651DEB7F267802933D
:1035600001232370EB77FB68FF2B00D174E420006C
:1035700001F0F4FA7860002800D139E4029B26704B
:10358000EB7735E44B4C651DEB7F267802930123E6
:1035900023700023EB77FB68FF2B00D15CE4200055
:1035A00001F0DCFA7860002801D1FFF721FC029BD2
:1035B0002670EB77FFF71CFC00233E4C65796371A6
:1035C000FB68FF2B00D147E4200001F0C7FA7860C8
:1035D000002801D1FFF70CFC6571FFF709FC0023FF
:1035E000344CA56E667AA3666372FB68FF2B00D12C
:1035F00032E4200001F0B2FA7860002801D1FFF730
:10360000F7FB6672A566FFF7F3FBBB68002B24D0BF
:103610002A4A12683F32127893421ED80022254C63
:10362000012B14D1A57AA272FB68FF2B01D1FFF701
:1036300013FC200001F092FA7860002801D1FFF716
:10364000D7FBBB68012B05D1A572FFF7D1FBE57A4B
:10365000E272E9E7E572FFF7CBFB194B7B60FFF7FE
:10366000C7FB0123134CE579E371FB68FF2B01D104
:10367000FFF7F2FB200001F071FA7860002801D119
:10368000FFF7B6FBE571FFF7B3FB0023094CE579C3
:10369000E371FB68FF2B01D1FFF7DEFB200001F097
:1036A0005DFA7860002801D1FFF7A2FBE571FFF712
:1036B0009FFBC046200B0208100C02089005020870
:1036C000BD0F1A01CF48BB6804005A1E9341553400
:1036D00025782370FB68FF2B01D1FFF7BDFB01F0BC
:1036E0003DFA7860002801D1FFF782FB2570FFF7D3
:1036F0007FFB0123C348441CE57FE377FB68FF2B76
:1037000001D1FFF7A9FB01F029FA7860002801D167
:10371000FFF76EFBE577FFF76BFB0023B948441C0E
:10372000E57FE377FB68FF2B01D1FFF795FB01F005
:1037300015FA7860002801D1FFF75AFBE577FFF70B
:1037400057FB0123AF4C257A2372FB68FF2B01D175
:10375000FFF782FB200001F001FA7860002801D118
:10376000FFF746FB2572FFF743FB0023A54C257AA4
:103770002372FB68FF2B01D1FFF76EFB200001F0E5
:10378000EDF97860002801D1FFF732FB2572FFF7D1
:103790002FFBBB689B48DBB20400013B5A425341FC
:1037A00056342578237000237B60FB68FF2B01D102
:1037B000FFF71EFB037A002B01D1FFF719FB01F085
:1037C000CDF97860002801D1FFF712FB2570FFF7D3
:1037D0000FFB0024B8687C60052834D80122894B8F
:1037E00004F020FD032225282B2E5C7D5A757B6872
:1037F000002B01D0FFF7FCFAFB68FF2B01D1FFF78C
:10380000F7FA804D280001F0A9F97860002801D16D
:10381000FFF7EEFAB868052801D9FFF7E9FA04F0D6
:1038200001FD15181B1E21249C7D9A75DFE7DC7DA8
:10383000DA75DCE71C7E1A76D9E75C7E5A76D6E725
:103840009C7E9A76D3E7704B7B60D0E76C75FFF770
:10385000CFFAAC75FFF7CCFAEC75FFF7C9FA2C7606
:10386000FFF7C6FA6C76FFF7C3FAAC76FFF7C0FA3B
:103870000022B8687A60052833D8624B04F0D2FC85
:10388000032225282B2E5C7D5A757B68002B01D0E6
:10389000FFF7AEFAFB68FF2B01D1FFF7A9FA594DEC
:1038A000280001F05BF97860002801D1FFF7A0FA49
:1038B000B868052801D9FFF79BFA04F0B3FC161984
:1038C0001C1F22259C7D9A75DFE7DC7DDA75DCE71D
:1038D0001C7E1A76D9E75C7E5A76D6E79C7E9A766D
:1038E000D3E7494B14007B60CFE76C75FFF780FA94
:1038F000AC75FFF77DFAEC75FFF77AFA2C76FFF7D7
:1039000077FA6C76FFF774FAAC76FFF771FA002657
:10391000BB687E601868052800D9A5E0394D1B7981
:103920002A0004F07FFC03384A5C7D8FA5321478AE
:103930001370364A1800126802926E7D03F0E6FAA0
:10394000A6352B783249D84004F08AFC2F4B1860FA
:103950007B68002B01D0FFF74BFA002E01D1FFF757
:1039600047FAFB68FF2B01D1FFF742FA254D2800EB
:1039700001F0F4F87860002801D1FFF739FABB684C
:103980001868052801D9FFF733FA2B0004F04AFC28
:103990006F767D848B92AC32147813701D4A1800B8
:1039A00012680292AE7D03F0B1FAAD352B7818495A
:1039B000D84004F055FC174BC9E7B43214781370A3
:1039C000154A180012680292EE7D03F09FFAB53591
:1039D0002B780F49D84004F043FC0F4BB7E7BC32BB
:1039E000147813700D4A1800126802922E7E03F0AC
:1039F0008DFABD352B780649D84004F031FC074BD1
:103A0000A5E7C046200B0208FF0F1A01C80B0208E9
:103A100040420F00D00B0208D80B0208E00B02084E
:103A2000C43214781370E34A1800126802926E7E52
:103A300003F06CFAC5352B78DF49D84004F010FC50
:103A4000DC4B84E7CC3214781370DC4A180012681F
:103A50000292AE7E03F05AFACD352B78D649D84083
:103A600004F0FEFBD54B72E7D54B7B6070E7A533C6
:103A70001C70029BA8352B60FFF7BAF9AC331C70A1
:103A8000029BB0352B60FFF7B3F9B4331C70029B77
:103A9000B8352B60FFF7ACF9BC331C70029BC03506
:103AA0002B60FFF7A5F9C4331C70029BC8352B604F
:103AB000FFF79EF9CC331C70029BD0352B60FFF7CB
:103AC00097F90024BA687C601068052800D995E051
:103AD000BC4B127904F0A6FB03384A5C6E80BA49ED
:103AE0000D780A705C7DB94AA5331878166803F022
:103AF0000DFAB54BB0491B78D84004F0B1FBB34B7D
:103B000018607B68002B01D0FFF772F9002C01D1FF
:103B1000FFF76EF9FB68FF2B01D1FFF769F9A94C9C
:103B2000200001F01BF87860002801D1FFF760F950
:103B3000BB681868052801D9FFF75AF9230004F07B
:103B400071FB60666C72787EA1490D780A709C7D6D
:103B5000A04AAC331878166803F0D8F99C4B964904
:103B60001B78D84004F07CFB9A4BC9E79A490D7842
:103B70000A70DC7D994AB4331878166803F0C6F9E8
:103B8000954B8D491B78D84004F06AFB934BB7E7FF
:103B900093490D780A701C7E924ABC3318781668D7
:103BA00003F0B4F98E4B84491B78D84004F058FBDD
:103BB0008C4BA5E78C490D780A705C7E7D4AC43336
:103BC0001878166803F0A2F9874B7B491B78D84018
:103BD00004F046FB774B93E784490D780A709C7E8E
:103BE000764ACC331878166803F090F97F4B724907
:103BF0001B78D84004F034FB704B81E7704B7B603E
:103C00007FE7A633A8341D702660FFF7F1F8AD33C7
:103C1000B0341D702660FFF7EBF8B533B8341D7073
:103C20002660FFF7E5F8BD33C0341D702660FFF74E
:103C3000DFF8C533C8341D702660FFF7D9F8CD33DF
:103C4000D0341D702660FFF7D3F85E4CA37C2500AE
:103C500002930123A2352E78A374BB682B70FB68F6
:103C6000FF2B01D1FFF7F8F8200000F077FF786014
:103C7000002801D1FFF7BCF8029B2E70A374FFF758
:103C8000B7F8504C2500E37CA3352E78029301232E
:103C9000E374BB682B70FB68FF2B01D1FFF7DCF8E6
:103CA000200000F05BFF7860002801D1FFF7A0F84A
:103CB000029B2E70E374FFF79BF8424C237F250094
:103CC00002930123D6352E782377BB682B70FB68CF
:103CD000FF2B01D1FFF7C0F8200000F03FFF786014
:103CE000002801D1FFF784F8029B2E702377FFF79D
:103CF0007FF83448BB680400D8342588238000232B
:103D00007B60837F002B01D1FFF772F8FB68FF2BEC
:103D100001D1FFF76DF800F021FF7860002801D194
:103D2000FFF766F82580FFF763F82648BB680400B4
:103D3000DA342578237000237B60837F002B01D148
:103D4000FFF756F8FB68FF2B01D1FFF751F800F0A1
:103D500005FF7860002801D1FFF74AF82570FFF7CA
:103D600047F80123174CA57FA377FB68FF2B01D1F0
:103D7000FFF772F8200000F0F1FE7860002801D112
:103D8000FFF736F8A577FFF733F800230D4CA57F32
:103D9000A377FB68FF2B01D1FFF75EF8200000F04E
:103DA000DDFE7860002801D1FFF722F8A577FFF744
:103DB0001FF8C046E80B020840420F00F00B020853
:103DC000FF0F1A01200B0208C60B0208C80B0208DD
:103DD000CD0B0208D00B0208D50B0208D80B020845
:103DE000DD0B0208E00B0208E50B0208ED0B0208F0
:103DF000E048BB680400D4342578237000237B603E
:103E0000C37E002B01D1FEF7F3FFFB68FF2B01D12E
:103E1000FEF7EEFF00F0A2FE7860002801D1FEF769
:103E2000E7FF2570FEF7E4FFD248BB680400D534F5
:103E30002578237000237B60C37E002B01D1FEF721
:103E4000D7FFFB68FF2B01D1FEF7D2FF00F086FE03
:103E50007860002801D1FEF7CBFF2570FEF7C8FF80
:103E60000123C44CE57EE376FB68FF2B01D1FEF70E
:103E7000F3FF200000F072FE7860002801D1FEF709
:103E8000B7FFE576FEF7B4FF0023BA4CE57EE37694
:103E9000FB68FF2B01D1FEF7DFFF200000F05EFE84
:103EA0007860002801D1FEF7A3FFE576FEF7A0FFBA
:103EB000B04C637F250002930123D7352E786377BA
:103EC000BB682B70FB68FF2B01D1FEF7C5FF2000FC
:103ED00000F044FE7860002801D1FEF789FF029BC4
:103EE0002E706377FEF784FFA24B5979002903D027
:103EF000A14B7B60FEF77CFFBA681068986250683F
:103F0000D8629068D26818635A637960FEF770FFD0
:103F10000123984C65796371FB68FF2B01D1FEF793
:103F20009BFF200000F01AFE7860002801D1FEF708
:103F30005FFF6571FEF75CFF0025BA687D60106861
:103F400005284CD88B4B04F06DF903272E353C43E4
:103F50001900012096311E7B0D88187393880B8001
:103F60007B68002B01D0FEF743FFFB68FF2B01D1DC
:103F7000FEF73EFF7F4C200000F0F0FDBB6878604C
:103F800000284ED01868052801D9FFF73EF804F044
:103F900049F92A2F34393E431900012098315E7BBC
:103FA0000D885873DAE7190001209A319E7B0D883D
:103FB0009873D3E7190001209C31DE7B0D88D873FC
:103FC000CCE7190001209E311E7C0D881874C5E7CE
:103FD00019000120A0315E7C0D885874BEE7674B44
:103FE0002E007B60BCE7267396342580FEF700FF29
:103FF000667398342580FEF7FBFEA6739A342580FD
:10400000FEF7F6FEE6739C342580FEF7F1FE26747B
:104010009E342580FEF7ECFE6674A0342580FEF702
:10402000E7FE1868052801D9FEF7E2FE04F0FAF869
:1040300003203F5F758B637A002B03D0200000F0D4
:10404000D7FCA0662300A5331878002801D0FEF71E
:10405000CFFE02F05BFF2300A6331B784849A8344B
:1040600099404B08181804F0FBF82060FEF7C0FEDA
:10407000A37A002B05D02100012000F0D7FC231DDE
:10408000D8672300A5331878012801D0FEF7B0FEC9
:1040900002F03CFF2300A6331B783949A83499402D
:1040A0004B08181804F0DCF82060FEF7A1FEE37A54
:1040B000002B06D02100022000F0B8FC23008C3336
:1040C00018602300A5331878022801D0FEF790FE6F
:1040D00002F01CFF2300A6331B782949A83499401D
:1040E0004B08181804F0BCF82060FEF781FE23008E
:1040F000A5331878032801D0FEF77AFE02F006FFF8
:104100002300A6331B781E49A83499404B08181881
:1041100004F0A6F82060FEF76BFE2300A5331878A4
:10412000042801D0FEF764FE02F0F0FE2300A6335F
:104130001B781349A83499404B08181804F090F8DC
:104140002060FEF755FE2300A5331878052801D01E
:10415000FEF74EFE02F0DAFE2300A6331B78084974
:10416000A83499404B08181804F07AF82060FEF73C
:104170003FFEC046200B0208590F1A01FF0F1A011B
:1041800040420F00BA689E4B1168D96619009088AA
:104190007031088019009079723108701900D07957
:1041A0007331087019001089743108801900907AF1
:1041B000763108701900D07A77310870190090892B
:1041C000783108801900907B7A310870128A7C332C
:1041D0001A8000237B60FEF70BFE894C657A002D68
:1041E00003D0884B7B60FEF703FE0123200063723F
:1041F00000F0FEFBFB68A066FF2B01D1FEF72CFE52
:10420000200000F0ABFC7860002803D0A566657242
:10421000FEF7EEFD2300A5331878002801D0FEF745
:10422000E7FD02F073FE2300A6331B787649A8341D
:1042300099404B08181804F013F82060FEF7D8FDD9
:10424000B9680A68002A05D0704B1B683F331B7899
:104250009A4203D96E4B7B60FEF7CAFD4B681E780D
:104260005D789C78D8781979654B012A0FD11A00AE
:10427000843216701A00853215701A008632147056
:104280001A008732107088331970FEF7E5FD1A00A6
:10429000903216701A00913215701A009232147012
:1042A0001A00933210709433EEE7BD68012D0FD1E0
:1042B000534B9B7A002B07D1544B1B683F331B7821
:1042C0009D4201D8002D08D1524B7B60FEF790FD36
:1042D000022DF1D14A4BDB7AECE7494C2100012D4C
:1042E00019D1280000F0A2FB231DD867A572FB6836
:1042F000FF2B01D1FEF7B0FD200000F02FFC78600D
:10430000002817D0BA680023012A0DD1221DD367D7
:10431000A372FEF76DFD022000F088FB23008C33B2
:1043200018600123E372E2E722008C321360E3722B
:10433000FEF75EFD2300A5331878431E012B01D93B
:10434000FEF756FD02F0E2FD2300A6331B782E494E
:10435000A83499404B08181803F082FF2060FEF73C
:1043600047FD274C237D250002930123A4352E7899
:104370002375BB682B70FB68FF2B01D1FEF76CFD2A
:10438000200000F0EBFB7860002801D1FEF730FD43
:10439000029B2E702375FEF72BFD0122184B9A719C
:1043A000BA689A6400237B60FEF722FD1A4B7B609B
:1043B000FEF71EFD002D01D1FEF737FFB122C02010
:1043C0001649D2008B58800503438B500024FEF71A
:1043D0002CFF002D01D1FEF728FF114B029C1988FC
:1043E0000298104A0C40B300014201D1FEF725FFAC
:1043F0000A490D485B18995801409950E6E7C046B4
:10440000200B02083E0F1A0140420F0090050208DF
:10441000BD0F1A012D0F1A01FF0F1A0100002640CF
:10442000B2050208FC050000FFFFFFCFF0B5154DF7
:1044300087B02A6802AC1300BA331B88126A9B004B
:104440009B18DB6827001E0001930ECE0EC7336851
:1044500020003B60FEF79EFC019B07CC07C3852133
:1044600080203B68490133602B6840031A6ABA33E5
:10447000505018885158800000218018FEF73AF9F2
:1044800007B0F0BD9005020837B50022384910008A
:104490000B000132486008319D2AFAD1354A0020CC
:1044A0001A60354A9A60354A1A61354A9A61354A26
:1044B0001A62354A9A62354A1A63354A9A63354A0E
:1044C0001A64354A1268110040310978042900D96C
:1044D00032489864052948D800211965516801249B
:1044E0000800083098652E48644218662D488025DB
:1044F00058662D48DC6798662C482D0218672C48B2
:104500000918996780231169DB012A48CB184919DA
:104510008025ED0003605B19446008309942F7D1B3
:1045200000218520244B40010433D967136A1B18EE
:10453000802040039860042368460380138F019114
:1045400005331E49837002F069FD002800D001BECA
:104550006B4600229B5E002B06DB1F2213401E3A97
:104560009A401300164A136037BD1649B5E7C04696
:10457000B40502080800264000072640040726402C
:10458000080726401007264084032640880326405B
:104590008C03264090032640900502089403264091
:1045A0000400264000FF03F048052640440526404D
:1045B00060F00000340602089C0A02082D44001036
:1045C00000E100E09803264010B5314C2368002B31
:1045D0005CD01A78002A0FD0DA6899682020FEF79C
:1045E000E7FA236889209968DA68FEF783FB236875
:1045F00093209968FEF7ACFB23685A78002A20D0F4
:104600009A6A196A3520FEF7D3FA23684A20DA6AD3
:10461000596AFEF7CDFA23688B209A6A196AFEF769
:1046200069FB23688D20DA6A596AFEF763FB236809
:104630009520196AFEF78CFB23689720596AFEF7CC
:1046400087FB23689A78002A20D09A6B196B5F2029
:10465000FEF7AEFA23687420DA6B596BFEF7A8FAFE
:1046600023688F209A6B196BFEF744FB2368912017
:10467000DA6B596BFEF73EFB23689920196BFEF746
:1046800067FB23689B20596BFEF762FB10BDC04699
:10469000140C020800B5032807D8013800230228AB
:1046A00016D803F0BFFD0F1719001223FF339842ED
:1046B00017D01423FF33984215D0033B98420ED0F5
:1046C0000F4B05E08B795A4253410D485B42034042
:1046D000180000BD4B79F6E70231CB7FF3E7CB79C9
:1046E000F1E70B7AEFE70131CB7F002BE8D0054BE8
:1046F0001B6841331B78013B5A1E9341E5E7C046D6
:10470000FE0F1A019005020810B51B4B1B683E33C3
:104710001B7883422DD905282BD803F083FD030C89
:1047200012181E240B7B002B23D00B009633188805
:10473000FFF7B0FF10BD4B7B002B1AD00B00983356
:10474000F5E78B7B002B14D00B009A33EFE7CB7B84
:10475000002B0ED00B009C33E9E70B7C002B08D01C
:104760000B009E33E3E74B7C002B02D00B00A03301
:10477000DDE70248DEE7C04690050208FE0F1A0199
:1047800000B5032806D80138022830D803F04AFDC6
:10479000151719001223FF3398422AD01423FF3330
:1047A000984217D01138FF38431E9841124B4042AF
:1047B0001840FA23DB01C01800E0886C00BD886A4D
:1047C000FCE7E43108680138434258410B4B404252
:1047D0001840F0E70A4B1B68413318780138431E34
:1047E0009841084B4042184080231B02E3E70648EB
:1047F000E4E780200002E1E7FE82FFFF0024F400EE
:1048000090050208FE7FFFFF00127A0002235B4240
:1048100070B51360344B15001B6804001A003E325B
:10482000127882425ED905285CD803F0FBFC03199C
:1048300034494F550B7B002B54D04B7A002B08D0BA
:104840000B007A331B78022B03D08B6E2B60200079
:1048500070BD0B0096331888FFF792FF2860F6E7CB
:104860004A7B002A3ED03F331B78002B0CD08B7A3A
:10487000002B09D00B0088331B78022B04D00431A5
:10488000CB6F2B600024E2E70B0098331888FFF70A
:1048900077FF2860F6E78A7B002A23D03F331B7816
:1048A000012B0AD9CB7A002B07D00B0094331B784D
:1048B000022B02D08C310B68E3E70B009A33E5E75B
:1048C000CB7B002B0ED00B009C33DFE70B7C002B47
:1048D00008D00B009E33D9E74B7C002B02D00B0095
:1048E000A033D3E7014CB2E790050208FE0F1A018E
:1048F00010B51C4B1B683E331C781B4B1360002308
:10490000844201D8180010BD0528FBD803F08AFCAA
:10491000030C12181E240023087B96319842F1D014
:104920000B8800211160EDE70023487B9831984205
:10493000F6D1E7E70023887B9A319842F0D1E1E78E
:104940000023C87B9C319842EAD1DBE70023087C36
:104950009E319842E4D1D5E70023487C9842D1D0DB
:10496000A031DDE790050208FE0F1A010300A8330D
:104970001B6810B50400002B02D00848584310BD36
:104980000300A533187802F0C1FA0123A634227877
:1049900093405B081818D040F1E7C04640420F0032
:1049A00010B5040001F06AFF002805D1200003497A
:1049B00001F0F0FF002800D0014810BD10270000D2
:1049C000FD0F1A0170B50400150001F0EBFA002884
:1049D0000AD12900200001F017FB002804D1200093
:1049E00001F08AFA002800D0004870BDFD0F1A01BE
:1049F000030010B50400963318882100FFF7C0FEAD
:104A0000030000209A1C0FD02200703211888142CE
:104A10000AD0E06E7334584303F022FC21784B1E19
:104A20009941013103F01CFC10BD000010B50C00D1
:104A30000021884222D01C4B1B683F331B788342E5
:104A40001CD301281CD12300983321001888FFF7BC
:104A500097FE23002200843385321B781178863438
:104A60002478821C1CD0002908D0002C1AD058436E
:104A700003F0F6FB210003F0F3FB0100080010BD7A
:104A80000228FBD123009A3321001888FFF778FE13
:104A900023002200903391321B7811789234DFE7A3
:104AA0000021EBE72100E9E790050208F8B50400D2
:104AB0000F00012932D10300817A427B0430C66F96
:104AC000983383301B8805780020814225D08242AC
:104AD00031D018002100FFF753FE184BC018184BB7
:104AE000984228D86B1E9D41164B6D421D40164BB7
:104AF000ED182379002B1AD0AE421CD3134B9E42E3
:104B000019D821003800FFF791FF301A434258416D
:104B10000F4B404218400F4BC018F8BD0300C17A3C
:104B2000827B9A338C301B880668C579CCE7AE420D
:104B300001D3094BE3E70748EFE7C04600F7C2FFA0
:104B400000879303C863E3FF20BCBE0080F0FA0235
:104B500002F0E5FEFE0F1A0180D1F008F0B5040066
:104B60008BB0002801D100F0EEFF0700A53721002F
:104B7000387805AAFFF7BCFE059E002E04D0014E32
:104B8000EDE2C0469F0F1A01022800D19EE21223D7
:104B9000FF33984200D1C3E201281DD1D74B1B68D7
:104BA000002B00D1DEE21A78002A00D1DAE25A683E
:104BB000A16C8A4200D0D5E29A68E16C8A4200D0AA
:104BC000D0E2DB68226D934200D0CBE22300543365
:104BD0001B78102B00D0C5E201F05AFB02281ED032
:104BE0006379002B1BD0C64AA36A9B18C54A93421F
:104BF00001D900F0ABFFE36A013B632B01D900F060
:104C0000A5FFFA22236B9200013B934201D300F0EF
:104C10009DFF636B013B934201D300F097FFA379A3
:104C2000002B0ED02279A36C002A00D19CE2B64A58
:104C3000934201D900F08DFFE36C002B01D100F00D
:104C400088FFA31CDB7F002B1FD02300E4331B68ED
:104C5000012B01D900F080FF2300E0331B68AB4A31
:104C60005B01913BFF3B934201D900F075FF2300AC
:104C7000DC331B68FB2B01D900F06EFF2300E83307
:104C80001B68032B01D900F067FF237B002B0FD09B
:104C90009F4B1B683E331B78002B09D023009633B3
:104CA00021001888FFF7F6FC002801D000F057FF1C
:104CB000637B002B0FD0964B1B683E331B78012B78
:104CC00009D92300983321001888FFF7E3FC002856
:104CD00001D000F047FFA37B002B0FD08C4B1B684B
:104CE0003E331B78022B09D923009A332100188800
:104CF000FFF7D0FC002801D000F037FFE37B002B4A
:104D00000FD0834B1B683E331B78032B09D923003C
:104D10009C3321001888FFF7BDFC002801D000F06B
:104D200027FF237C002B0FD0794B1B683E331B7869
:104D3000042B09D923009E3321001888FFF7AAFC11
:104D4000002801D000F017FF637C002B0FD0704BC0
:104D50001B683E331B78052B09D92300A0332100A3
:104D60001888FFF797FC002801D000F007FF01F03A
:104D700017FC00285FD1637A002B5CD0237B002BCB
:104D800001D100F0FEFE2300963318882100FFF7C2
:104D9000F7FC604BC018604B984201D900F0F1FE5F
:104DA0005E4AA36E9B182279002A00D1DEE15C4A9C
:104DB000934201D900F0E5FEE36E5A4A013B93426B
:104DC00001D900F0DEFE230070331B88564A013BF8
:104DD0009BB2934201D900F0D4FE230072331B78BA
:104DE000042B01D900F0CDFE2300802274331B88F0
:104DF0009200934201D300F0C4FE230076331B7867
:104E00000F2B01D900F0BDFE230077331B780F2B49
:104E100001D900F0B6FE2300802178331B88890178
:104E20008B4201D300F0ADFE23007C331B889342FC
:104E300001D300F0A6FE364D2B683F331B78002BC4
:104E400013D0A37A002B10D0012001F0D3FC00284E
:104E50000BD12B683F331B78002B05D0012120009C
:104E6000FFF724FE002800D0304E2B683F331B781C
:104E7000012B00D88AE1E37A002B00D186E1002ED5
:104E800000D06CE1022001F0B5FC002800D16FE1F8
:104E9000237F002B00D07DE1637D002B00D16EE6E7
:104EA0002B6840331B78002B00D168E63E78210048
:104EB0003000FFF729FC002800D060E62100300018
:104EC00004AAFFF715FD88235B00984200D156E63F
:104ED0001423FF33984200D151E6032800D14EE657
:104EE000049B002B00D04AE605AA21003878FFF782
:104EF0008DFC0F4B059A04901CE0C046140C020870
:104F000000DC0BFFC0EA210180F0FA02D0100000A3
:104F10009005020818FCFFFF18DDF50500CA91FE98
:104F200080BA8C01FEFF0300FE1F0000BF0F1A01B4
:104F30003F0D03009A4200D821E6002800D01EE66B
:104F40002300A8331B68002B00D118E6BD4FBE4ECE
:104F50007B43B34200D912E62300A6331B78032B10
:104F600000D90CE6A37D002B1CD02B6840331B78A6
:104F7000012B17D92300AC3321001878FFF7C4FBAD
:104F8000002801D000F0E6FC2300AD331A7803338B
:104F90001B687B43B34201D900F0DCFC032A01D932
:104FA00000F0D8FCE37D002B1CD02B6840331B782D
:104FB000022B17D92300B43321001878FFF7A4FB84
:104FC000002801D000F0F0FC2300B5331A78033339
:104FD0001B687B43B34201D900F0E6FC032A01D9E8
:104FE00000F0E2FC237E002B1CD02B6840331B78A2
:104FF000032B17D92300BC3321001878FFF784FB5B
:10500000002801D000F0C8FC2300BD331A78033318
:105010001B687B43B34201D900F0BEFC032A01D9CF
:1050200000F0BAFC637E002B1CD02B6840331B7849
:10503000042B17D92300C43321001878FFF764FB31
:10504000002801D000F0C5FC2300C5331A780333D3
:105050001B687B43B34201D900F0BBFC032A01D992
:1050600000F0B7FCA37E002B1DD02B6840331B78CB
:10507000052B18D92300CC3321001878FFF744FB07
:10508000002801D000F0E6FC22002300D032126894
:10509000CD3357431B78B74201D900F0DBFC032B1B
:1050A00001D900F0D7FCE37E002B00D08DE0637FB8
:1050B000002B00D1AEE02300D7331B78002B00D1AA
:1050C000A4E0012B00D1ADE0604E48E0604B1B68CE
:1050D000002B23D05A78002A20D01A69A16A8A426C
:1050E0001CD15A69E16A8A4218D19A69216B8A42B5
:1050F00014D1DA69616B8A4210D11A6AA16B8A42B3
:105100000CD15A6AE16B8A4208D19A6A216C8A42B0
:1051100004D1DB6A626C934200D15DE54D4E1EE026
:105120004B4B1B68002B19D09A78002A16D022000E
:105130005632D9781278914210D11A6BA16D8A42F9
:105140000CD15A6BE16D8A4208D19A6B216E8A426A
:1051500004D1DB6B626E934200D13DE53E4E3000E0
:105160000BB0F0BD3D4EFAE73D4A61E53D4A1FE612
:105170002B683F331B78012B06D902212000FFF753
:1051800095FC002800D183E6374EE8E7002E00D1D9
:105190007EE6E4E72300D6331B78012B09D0032BEE
:1051A00009D0002B03D1E379002B00D074E62F4EF9
:1051B000D5E7237AF8E7631CDB7F002BF7D02B6859
:1051C00041331B78012BF2D166E62300D4331F78DC
:1051D00021003800FFF798FA002815D12300D533B5
:1051E00003931B78042B0FD82100380005AAFFF782
:1051F0000DFB002808D1039B059A1B78DA401300A9
:105200001B4A934200D852E71A4EA8E7237A002B94
:1052100000D159E7A37C002B3CD1E37C002B4BD180
:10522000154E9CE7237F002B00D14DE72300D6339A
:105230001B78012BEAD0032B20D0002B00D043E7B2
:10524000E379E4E740420F0080D1F0088E0F1A01A5
:10525000140C0208580F1A01560F1A01570F1A01A1
:1052600000E1F50500AB8704BE0F1A01AF0F1A016C
:105270000084D7178F0F1A018C0F1A01631CDB7F74
:10528000002B00D120E72B6841331B78012B00D085
:105290001AE7BFE7637D002B01D1B14E5FE7200025
:1052A000FFF764FB2300A2331978013102F0D8FF25
:1052B000AC4B9842B1D9F0E7637D002BB0D0200011
:1052C000FFF754FBB042ABD82700A3373978013140
:1052D00002F0C6FF2379002B0AD0A34B98429FD837
:1052E000A37F002B06D1237D002B38D19F4E36E7BC
:1052F0009F4BF3E72300D8331B88012B09D02BD910
:105300009C4A934205D002219B4AFF311A408A42AF
:1053100002D1627D002A01D1984E20E70222FF329D
:105320000225934208D0934A6D19934204D0944ABF
:10533000033D934200D107352000FFF717FB230000
:10534000DA331978013102F08BFF290002F088FF6F
:10535000844B9842C7D9DFE701258A48EFE7E37C11
:10536000002BC3D02000FFF701FBB04200D957E764
:105370003978E61C013102F073FF2300A433039354
:105380001978251D013102F06BFF794B9842ADD899
:105390009621002001F0F8FE2378002B28D06378B6
:1053A000002B0FD0F07F012806D9631DDB7F002B77
:1053B00010D102F04DFC0FE002F0A4FC0028F4D064
:1053C000714ECCE6E87F022801D00528EDD102F02D
:1053D000F9FCF3E702F00CFC0028F1D102F094FD97
:1053E000A378002B02D102F07DFD01E002F06AFDFE
:1053F000664D2B6841331B78012B09D100F0A8FEC4
:10540000631CDB7F00287DD0002B01D100F0AAFEB9
:105410005F4B08221968237A0E001640114278D09B
:10542000002B04D17B2001F05BFE00F04DFE237FBA
:10543000002B0ED02300D6331E7800F015FD8642D7
:1054400007D002F07BFD002800D09DE3300000F083
:10545000F7FC01224F4B5049C858A31CDB7F104278
:1054600000D1A3E04D480958114200D19EE0002B25
:1054700001D1FCF797FD00F00BFF6379022800D003
:10548000B5E0002B01D100F0F1FEA379002B0ED086
:10549000E06C002808D0230054331B7808220093C6
:1054A000216D0023FDF702F9A06C00F0CDFEA37C76
:1054B000002B04D02300A233187800F003FDE37C16
:1054C000002B02D0387800F0D9FC237D002B03D0CC
:1054D000039B187800F0AEFB2700122296373B881A
:1054E000FF32934200D0BEE02300A5331978002993
:1054F00000D0B8E0012000F0C7FF002800D1A0E0F4
:10550000274E2CE6002B83D002F0F8FD00F004FEBD
:105510007EE7002B8BD002F0F1FDA06D00280FD0AC
:10552000E36D002B0CD033003200216E0096FDF7A6
:10553000BDF833003200616EE06D0096FDF7B6F8FD
:10554000230056331878002800D0012000F0CCFD4D
:10555000144800F095FD002800D168E7124EFEE5E2
:105560008D0F1A010084D71740787D018B0F1A0127
:1055700000E1F50501020000FFFDFFFF890F1A01A0
:105580000103000000127A006F0F1A019005020853
:1055900000002740A0F0010000003C40B4F00100F2
:1055A0004E0F1A0140420F005A0F1A01002B00D172
:1055B00061E702F0A3FD2300E8331968043B186893
:1055C00008331B682200DBB200932300DC32E03397
:1055D0001B681268C9B2C0B2FCF730FD002800D1C8
:1055E00049E7C04B984200D145E7BF4EB7E5002BD5
:1055F00000D14AE702F082FDA06B002810D0E36BD7
:10560000002B0DD00026216C330032000096FDF7F0
:105610004DF833003200616CE06B0096FDF746F800
:10562000636B226BE16AA06A00F040FE002801D0A3
:10563000AE4E94E5AE4800F0E3FE002800D124E72A
:10564000F6E7012100F0AEFC00280AD1237B002BF5
:1056500012D00020398800F017FF00280CD0A54E8A
:105660007DE5A54E7BE5230098330120198800F0E5
:105670000BFF0028EAD043E7A37B002B09D02300CF
:105680009A330220198800F0FFFE002801D09B4EBB
:1056900065E5E37B002B1AD1237C002B26D1637CAC
:1056A000002B32D100F07CFF00283DD001F0A6FB9A
:1056B000637A0600002B04D02000FFF799F9864298
:1056C00035D000F07FFF00282ED08D4E47E52B68A7
:1056D0003E331B78032BDFD923009C33032019882A
:1056E00000F0D2FE0028D7D0864E38E52B683E3336
:1056F0001B78042BD3D923009E330420198800F093
:10570000C3FE0028CBD0804E29E52B683E331B78A2
:10571000052BC7D92300A0330520198800F0B4FE5B
:105720000028BFD0794E1AE5637A002B20D000F014
:1057300037FF00281CD102F0E1FC2300E16E783332
:105740001A8802331B780591216F05A80691616FB5
:1057500007918373230082817C331B88038200F0CE
:1057600055FF0028B1D16A4800F0E0FF0028ACD115
:105770002300A53303930020197800F013FC0028C0
:1057800000D06EE72300A633197800F03DFC061E1A
:1057900000D066E712223B88FF32934278D02B6814
:1057A0003F331B78002B5AD0012001F023F800284A
:1057B00000D07FE0A37A002B21D0012001F01AF85D
:1057C00000281CD1230084331B7805AF3B702300D5
:1057D00085331B787B70230086331B78BB702300D6
:1057E00087331B78FB70230088331B783B7102F0F2
:1057F00085FC39000120FFF7D3F8002870D12B6811
:105800003F331B78012B2AD9022000F0F3FF002838
:1058100000D081E0E37A002B21D0022000F0EAFFE3
:1058200000281CD1230090331B7805AF3B70230068
:1058300091331B787B70230092331B78BB7023005D
:1058400093331B78FB70230094331B783B7102F079
:1058500055FC39000220FFF7A3F8002872D101207F
:1058600000F06CFBA37D002877D0002B6DD00220C8
:1058700000F064FBE37D00287AD1002B7AD023006E
:10588000B5331A78013B19780220FFF79BF889E0BD
:10589000039B1B78002B82D1637B002B00D12FE66A
:1058A000230098330120198800F0EEFD002800D174
:1058B00075E725E6012001F0DFFAA37A0700002B47
:1058C00006D021000120FFF7B1F8874200D174E72C
:1058D00002F014FC012000F0A1FF002800D169E7CC
:1058E0000C4E3CE4030016005D0F1A015F0F1A0115
:1058F000B80B00004F0F1A010F0F1A014D0F1A01BC
:105900003F0F1A014C0F1A014B0F1A014A0F1A01CF
:10591000400D03002F0F1A01022001F0ADFAE37AC7
:105920000700002B06D021000220FFF77FF88742F6
:1059300000D172E702F0E2FB022000F06FFF0028C6
:1059400000D167E7924EFFF70AFC012000F008FB48
:1059500000288CD08F4EFFF702FC002B87D023004D
:10596000AD331A78013B19780120FFF72BF8EFE7E8
:10597000002B14D02B6840331B78032B17D903203E
:1059800000F0DCFA237E002826D0002B0FD1032064
:1059900000F0E6FA00280AD07F4EFFF7E0FB022075
:1059A00000F0DEFA0028E5D07C4EFFF7D8FB2B682C
:1059B00040331B78042B1AD9042000F0BFFA637E11
:1059C00000282FD0002B12D1042000F0C9FA0028A3
:1059D0000DD0734EFFF7C3FB002BE8D02300BD337F
:1059E0001A78013B19780320FEF7ECFFD2E72B6809
:1059F00040331B78052B20D800F006FAA37F00283F
:105A000036D1002B38D02300D8331F889D7800F082
:105A100005FA380000F0B2F9280000F0C9F900F0EA
:105A2000DFF929E0002BE2D02300C5331A78013BCF
:105A300019780420FEF7C6FFC9E7052000F07EFABA
:105A4000A37E002809D0002BD6D1052000F088FACB
:105A50000028D1D0534EFFF782FB002BCCD023007F
:105A6000CD331A78013B19780520FEF7ABFFEFE73D
:105A7000002B01D100F0D2F900F04AF9E37E0028B2
:105A800019D0002B01D100F04DF9637F002B04D019
:105A90002300D733187800F059F92300424F5533CB
:105AA0001D783B78AB421BD002F048FA002813D097
:105AB0003E4EFFF754FB002BE7D02300D4331F7872
:105AC0005D7800F02FF9380000F0DCF8280000F0D5
:105AD000F3F800F00BF9D8E7280000F0A1FB3D70C7
:105AE00000F074FBE379002820D0002B0ED1A32016
:105AF00001F0F6FA00F06AFB002807D002F01EFA67
:105B00000028D5D100F06CFB0028D1D12378002BE0
:105B100008D0637D002B05D02300A83320791968B5
:105B200001F032FB02F0EAFAFFF719FB002BEDD08F
:105B300000F04CFB0028E9D102F000FA0028B7D1B0
:105B400000F030FBE2E71A4EFFF709FB194EFFF7B2
:105B500006FB194EFFF703FB184EFFF700FB184E2C
:105B6000FFF7FDFA174EFFF7FAFA174EFFF7F7FAAD
:105B7000164EFFF7F4FA164EFFF7F1FA154EFFF73F
:105B8000EEFA154EFFF7EBFA144EFFF7E8FAC046AF
:105B90002E0F1A019E0F1A019C0F1A019D0F1A0158
:105BA0009B0F1A019A0F1A01180C02085C0F1A01B8
:105BB000FE0F1A01EF0F1A01EE0F1A01ED0F1A0175
:105BC000DF0F1A01DE0F1A01DD0F1A01DC0F1A01B7
:105BD000DB0F1A01DA0F1A01CF0F1A011F0F1A017A
:105BE000F0230A041B0330B51A400F240B00234096
:105BF0001A43084B1D68830228691B188020C001C6
:105C00001A5018582040401A431E984102494042F9
:105C1000084030BD900502080300C200044B10305C
:105C20001B6880021B69C0580F2318407047C0468C
:105C30009005020810B50200040000232B21072064
:105C400003F066FF064B07481B68240219008831E1
:105C50001A680B68D218136803401C43146010BD07
:105C600090050208FF00FFFF054B1B681A008832F1
:105C70001B6812689B181868000AC0B27047C046BB
:105C80009005020810B50200040000231F21072020
:105C900003F03EFFA023F021054ADB0009012402A6
:105CA000D0580C40034908400443D45010BDC046AE
:105CB00000002640FFF0FFFF10B5020004000023A3
:105CC0002021072003F024FFA023E021054ADB0068
:105CD000C9012403D0580C40034908400443D45060
:105CE00010BDC04600002640FF8FFFFF00230122A9
:105CF000212110B5072003F00BFFA02280230349C8
:105D0000D20088581B0203438B5010BD0000264070
:105D1000A023034ADB00D0580004C00F7047C046E0
:105D200000002640002322211A0010B5072003F0AE
:105D3000EFFEA0220349D2008B58034803408B504A
:105D400010BDC04600002640FF7FFFFF10B50200D7
:105D5000040000232321072003F0DAFEC022054BB4
:105D60009200240218681440034A104004431C6047
:105D700010BDC04600002740FFFCFFFF10B5040027
:105D8000020000231B21072003F0C2FE0449054A3C
:105D900005488B580340054804401C438C5010BDF7
:105DA0000000264004050000FEFCFFFF0103000088
:105DB00010B50400020000231C21072003F0A8FEF8
:105DC0000449054A05488B58240403401C438C5061
:105DD00010BDC0460000264004050000FFFF00FF84
:105DE000002301221D2110B5072003F091FE80231E
:105DF0000349044A1B06885803438B5010BDC04614
:105E00000000264004050000024A034BD058C00F92
:105E10007047C046000026400405000000231E21F4
:105E20001A0010B5072003F073FE0349034A8B588C
:105E30005B005B088B5010BD00002640040500008D
:105E400010B50200040000231A21072003F060FEB1
:105E5000A02203200349D2008B58044083431C43F3
:105E60008C5010BD00002640A023034ADB00D05810
:105E7000032318407047C0460000264010B50200BA
:105E8000040000231921072003F042FE064B2406DC
:105E90001B681A0088321B6812689B181868000279
:105EA000000A2043186010BD90050208044B1B68CF
:105EB0001A0088321B6812689B181868000E704719
:105EC0009005020810B502000400002318210720E5
:105ED00003F01EFE064B07481B68240219008C3194
